:040000008031132810
:100008007E14803120007F08F7008B1A0B1D0E2804
:100018008131442177082000FF007E1009008031DB
:1000280015287E1020008031192880318D208031DC
:100038008B170B178030F2000230F3008030F0008D
:100048000230F10022000E1320008E1C0E193F28EA
:1000580022000E178E160B302000A1002630A000BB
:100068005D30890B3528A00B3528A10B35280032C7
:1000780022008E120E1320000D1E4D280130710231
:10008800213003197002031C4D280130F0020030A2
:10009800F13B8E1D5A2803307102F03003197002AB
:1000A80003185A280130F0070030F13D7108F900B3
:1000B8007008F8008031C720803120008D1F6F281C
:1000C80001307302213003197202031C6F280130BA
:1000D800F2020030F33B8E1F7C2803307302F030AD
:1000E8000319720203187C280130F2070030F33D2F
:1000F8007308F9007208F8008031DD208031823001
:100108002000A000DD30890B8728A00B872800324B
:1001180028288031AE20803181316A2180318131B7
:1001280075218031813162218031813118218031FE
:1001380081312821803181313621803181315A2124
:1001480080318131082180318131522180318031E3
:10015800F320080022008C018D018E013F30210020
:100168008C00F0308D008F308E0023008E018D01C1
:1001780010308C0024008D0138308C002100951738
:1001880022009D0108007908FB007808FA00FB3678
:10019800FA0CFB36FA0C7A082C009B007808033915
:1001A800FA000530FA35FF3E031DD6287A359A0045
:1001B80008007908FB007808FA00FB36FA0CFB36D1
:1001C800FA0C7A082C00950078080339FA000530F3
:1001D800FA35FF3E031DEC287A359400080021000B
:1001E8001508C03917389500603020009500603038
:1001F800FA007A08F6000B118B167930F8000130F6
:10020800F90081317021080089303E00990064307E
:100218009A0007309B009C0108309D0020309E000A
:100228009F01C2309800080089303E009100643078
:100238009200173093009401083095002030960002
:100248009701C230900008003E00A9013530AA008D
:10025800AB010230AC00AD010830AE00AF01C330D5
:10026800A80008003E00A1017730A200A3010230D7
:10027800A4000830A500A601A701C530A000080009
:100288000B117608200095007408750403190800FE
:1002980075088A0074080A00813108003F30200080
:1002A8009B009A01911007309C00080080302C00B8
:1002B8009C001F309B00C0309A00080080302C0042
:1002C80096001F309500C03094000800723021005D
:1002D80099002200960108007908F5007808F400D2
:0C02E800080016302100970008000800F4
:020000040001F9
:04000E00E4FFFFDF2D
:00000001FF
